:020000040800F2
:100000001005002001010008AF120008EB110008E4
:10001000AD120008490200085D150008000000004C
:10002000000000000000000000000000E9130008CC
:100030004B02000800000000B1120008EB1300089A
:100040001B0100081B0100081B0100081B01000820
:100050001B0100081B0100081B0100081B01000810
:100060001B0100081B0100081B0100081B01000800
:100070001B0100081B0100081B0100081B010008F0
:100080001B0100081B0100081B0100081B010008E0
:100090001B0100081B0100081B0100081B010008D0
:1000A0001B0100081B0100081B0100081B010008C0
:1000B0001B0100081B0100081B0100081B010008B0
:1000C0001B0100081B0100081B0100081B010008A0
:1000D0001B0100081B0100081B0100081B01000890
:1000E0001B0100081B0100081B010008DFF80CD0F1
:1000F00000F098F800480047AD19000810050020EE
:100100000648804706480047FEE7FEE7FEE7FEE7B1
:10011000FEE7FEE7FEE7FEE7FEE7FEE73D14000828
:10012000ED0000082DE9F05F0546002092469B4651
:1001300088460646814640241BE0284641464746FD
:10014000224600F020F853465A46C01A914110D377
:1001500011461846224600F055F82D1A67EB0108A3
:100160004F4622460120002100F04CF817EB000911
:100170004E41201EA4F10104DFDC484631462A46E8
:100180004346BDE8F09F202A04DB203A21FA02F022
:100190000021704721FA02F3D040C2F120029140C1
:1001A000084319467047D2B201E000F8012B491EFE
:1001B000FBD270470022F6E710B513460A46044604
:1001C0001946FFF7F0FF204610BD421C10F8011B36
:1001D0000029FBD1801A704730B50B46014600203C
:1001E0002022012409E021FA02F59D4205D303FAF9
:1001F00002F5491B04FA02F52844151EA2F101027A
:10020000F1DC30BD202A04DB203A00FA02F10020A4
:1002100070479140C2F1200320FA03F31943904044
:1002200070470000064C074D06E0E06840F001030F
:1002300094E8070098471034AC42F6D3FFF75AFF12
:10024000881B0008A81B0008FEE7704770B504462D
:1002500000F004F90546601C02D00448007804440C
:1002600000F0FCF8401BA042FAD370BD080000204B
:100270002DE9F84FDFF8B891002409F1040A0AF1DA
:10028000040B23460F270BF1040EC9E00125A540FE
:100290002A40AA427DD1674ED1F804C0ACEB0608D3
:1002A000B44532D014DCBCF1030F3AD009DCBCF108
:1002B000000F2AD0BCF1010F1CD0BCF1020F31D1CC
:1002C0001DE0BCF1110F17D0BCF1120F2AD119E0BB
:1002D000B8F5881F19D006DCB8F5803F15D0B8F501
:1002E000801F1FD111E0B8F5001F0ED0B8F5041F14
:1002F00018D10AE0CB6815E0CB681B1D12E0CB6873
:1003000008330FE0CB680C330CE08B682BB1012B6A
:100310004FF0080303D0456104E0042302E00561C7
:1003200000E00023FF2A01D8064601E000F10406A0
:100330004FEA840501D9A5F12005D6F8008007FA17
:1003400005FC28EA0C0803FA05F548EA0508C6F892
:1003500000804D68ED0062D5374DAE6946F001066C
:10036000AE61AD6924F0030605F001050095334D3B
:1003700006EB050CDCF80850A607360F07FA06F85E
:1003800025EA0805DFF8B880404503D14FF00008A2
:1003900017E044E0DFF8AC80404502D14FF001089F
:1003A0000FE0DFF8A480404502D14FF0020808E0DA
:1003B000DFF89880404502D14FF0030801E04FF08C
:1003C000040808FA06F848EA0508CCF808804D68E1
:1003D000D9F80060ED034D4601D5164300E0964381
:1003E0002E604D68DAF80060AD03554601D516431E
:1003F00000E096432E604D68DBF80060ED025D463C
:1004000001D5164300E096432E604D68DEF800608B
:10041000AD02754601D5164300E096432E60641C7C
:100420000D682A46E5407FF431AFBDE8F88F000043
:1004300000040140000011100010024000000140C3
:1004400000080140000C0140001001400014014070
:100450000AB1016170470904FBE7000001488068A8
:1004600070470000080000200248816802781144AB
:100470008160704708000020074810B5016841F00E
:1004800010010160032000F067F8002000F006F87A
:1004900000F024F8002010BD0020024070B50D4D82
:1004A00004464FF47A712878B1FBF0F00A490968E4
:1004B000B1FBF0F000F0C3FD48B9102C07D20022C8
:1004C0002146501E00F028F800206C6070BD01200D
:1004D00070BD000008000020140000200C4808B582
:1004E000816941F001018161816901F0010100919F
:1004F000C16941F08051C161C06900F08050009035
:100500000448416821F0E06141F00071416008BD9C
:100510000010024000000140F0B40E4B1B680C4676
:10052000C3F30223C3F10705042D00D90425191DC7
:10053000072901D2002300E0DB1E012606FA05F19F
:10054000491E214099409E40761E16403143F0BC22
:1005500001F01AB80CED00E0064900F00702086847
:100560004FF6FF03184040EA0220034A1043086098
:10057000704700000CED00E00000FA052DE9F0479F
:100580000F46050061D0434E306800F00700B842C6
:1005900009D2306820F0070038433060306800F03E
:1005A0000700B84251D128683B4C810712D540075B
:1005B00003D5606840F4E06060602878000703D5E8
:1005C000606840F4605060606068A96820F0F000E6
:1005D000084360602878C00728D06868012810D0D8
:1005E0002168022810D0890700292EDA616821F0DD
:1005F000030101436160FFF731FF804641F2883912
:100600000DE021688903EFE78901EDE7FFF726FF99
:10061000A0EB0801494502D90320BDE8F0876068D6
:10062000696800F00C00B0EB810FEFD1306800F08A
:100630000700B8420BD9306820F00700384330601B
:10064000306800F00700B84201D00120E5E72878C3
:10065000400705D56068E96820F4E0600843606001
:100660002878000706D56068296920F4605040EAC0
:10067000C100606000F038F86168084AC1F30311F6
:10068000515CC8400649086006480068FFF706FF4D
:100690000020C2E70020024000100240701B00084A
:1006A000140000200C000020044805490068496837
:1006B000044AC1F30221515CC84070471400002075
:1006C00000100240801B0008044805490068496882
:1006D000044AC1F3C221515CC84070471400002095
:1006E00000100240801B000812A185B00FC98DE8E0
:1006F0000F0014A0144A006804905168134801F0D8
:100700000C03042B10D0082B0ED1C1F38343C90373
:100710001DF803000AD5516804AAC1F34041515C99
:100720000A4A5043B0FBF1F005B07047084948430E
:10073000FAE7000002030405060708090A0B0C0D7E
:100740000E0F1010010200000010024000127A008B
:1007500000093D002DE9F84F040070D02078C04D0D
:10076000C00749D06868C0F38100012807D06868D5
:10077000C0F38100022809D16868C00306D5286843
:10078000800339D560680028E7D035E06068B0F5AF
:10079000803F0BD010B1B0F5A02F11D0286820F405
:1007A00080302860286820F4802002E0286840F427
:1007B00080302860606890B1FFF750FE06460AE07E
:1007C000286840F480202860F0E700BFFFF746FE6D
:1007D000801B642873D828688003F7D50CE0FFF7E6
:1007E0003DFE064605E000BFFFF738FE801B64288B
:1007F000F0D828688003F7D420789A4E80074FF00D
:1008000001094FF0000839D5686810F00C0F07D0C7
:100810006868C0F38100022809D16868C00306D463
:100820002868800714D52069012808D110E02069C4
:10083000B0B1C6F80090FFF711FE074605E00AE1E7
:10084000FFF70CFEC01B0228C4D828688007F7D524
:100850002868616920F0F80040EAC10028600DE0D6
:10086000C6F80080FFF7FAFD074604E0FFF7F6FD43
:10087000C01B022823D828688007F7D420780007F7
:100880002CD57948A169D9B1C0F80090FFF7E6FDF1
:10089000074604E0FFF7E2FDC01B02280FD8686A94
:1008A0008007F7D571484FF4FA510068B0FBF1F0BA
:1008B000009000BF0098411E0091FAD20EE080E047
:1008C000C0F80080FFF7CAFD074604E0FFF7C6FD49
:1008D000C01B022875D8686A8007F7D420784007C3
:1008E00060D5E8690027C00008D4E86940F080506E
:1008F000E861E869012700F0805000905C480168D9
:10090000C90513D40168834641F480710160FFF783
:10091000A5FD824606E000BFFFF7A0FDA0EB0A00A0
:1009200064284ED8DBF80000C005F5D5E068012842
:100930000AD008B1052813D0286A20F001002862E7
:10094000286A20F0040002E0286A40F001002862D2
:10095000E06841F2883B98B1FFF780FD82460BE0EA
:10096000286A40F004002862EEE700BFFFF776FD3A
:10097000A0EB0A0159455AD8286A8007F6D50CE041
:10098000FFF76CFD824605E0FFF768FDA0EB0A016A
:1009900059454CD8286A8007F6D41FB1E86920F081
:1009A0008050E861E06988B36968C1F38101022978
:1009B00044D00228C6F8608004D0FFF74FFD0446FB
:1009C00038E034E0FFF74AFD074604E0FFF746FD54
:1009D000C01B02282BD828688001F7D4206AB0F504
:1009E000803F05D16868A16820F400300843686042
:1009F000D4E908010843696821F474110843686068
:100A0000C6F86090FFF72AFD044606E025E000BF27
:100A1000FFF724FD001B022809D828688001F7D5BC
:100A20001BE000BFFFF71AFD001B022802D90320BC
:100A3000BDE8F88F28688001F4D40EE00128F7D0D3
:100A40006868226A00F48031914204D1616A00F43E
:100A50007010884201D00120EAE70020E8E700009A
:100A60000010024000004242800442421400002074
:100A70000070004090F85100704770B5040009D034
:100A8000606A002540B125616561A56294F8510056
:100A900040B10CE0012070BD6068B0F5827FF4D0F9
:100AA000E561F2E784F85050204600F03FF802205C
:100AB00084F851002068016821F040010160A0889D
:100AC000218900F4827001F404410843A18901F4F2
:100AD00000610843217C01F002010843217D01F0FF
:100AE00001010843218B01F400710843217F01F0CB
:100AF0003801084394F8201001F080010843218D4B
:100B000001F40051084321680860A069042101EA4A
:100B10001040216848602068C16921F40061C1610A
:100B20006565012084F85100002070BD30B585B0A6
:100B300000240094019402940394006814498842AC
:100B400023D11448816941F480518161816901F4A4
:100B500080510491816941F00401816180690E4DE9
:100B600000F004000490A0200090022001900320D7
:100B7000039069462846FFF77BFB4020CDE900043F
:100B8000694628460294FFF773FB05B030BD0000AC
:100B90000030014000100240000801402DE9F84FEC
:100BA000044640680025984616460F464FF0040B51
:100BB000B0F5827F01D1A06888B194F85000012877
:100BC00018D0012084F85000FFF748FC814694F8C3
:100BD00051004FF0000A01280ED0022582E084F86F
:100BE00051B013460A462046CDF8008000F036F991
:100BF000BDE8F88F0220FBE7002F72D0002E70D0E6
:100C000084F851B0C4F854A0A763A687E687C4F857
:100C100030A0A4F834A0A4F836A0C4F840A0C4F8CA
:100C200044A0A068B0F5004F09D12068016821F008
:100C3000400101602068016821F480410160206862
:100C40000168490603D4016841F040010160E06891
:100C5000D8B139E020688168C90709D0007BA16B51
:100C60000870A06B401CA063E08F401EE0870CE082
:100C7000FFF7F4FBA0EB0901414503D3B8F1FF3FB7
:100C800003D036E0B8F1000F33D0E08F0028E1D177
:100C90001DE020688168C90709D0C068A16B088081
:100CA000A06B801CA063E08F401EE0870CE0FFF784
:100CB000D5FBA0EB0901414503D3B8F1FF3F03D0B9
:100CC00017E0B8F1000F14D0E08F0028E1D14A46B8
:100CD0004146204600F0EDFA08B120206065606DC5
:100CE00000B10125012084F8510084F850A0284665
:100CF0007EE70325F6E72DE9F84F044690F850000B
:100D000000271D461646894601280DD04FF0010BDD
:100D100084F850B0FFF7A2FB804694F85100BA4621
:100D2000012804D0022793E00220BDE8F88FB9F132
:100D3000000F73D0002E71D0032084F85100C4F846
:100D400054A0C4F83090A686E686C4F838A0A4F86B
:100D50003CA0A4F83EA0C4F844A0C4F840A0A068F9
:100D6000B0F5004F09D12068016821F04001016011
:100D70002068016841F480410160206801684906EB
:100D800003D4016841F040010160E068B0F5006FF4
:100D9000606803D030B3012E24D041E008B1012EA9
:100DA0001CD1206B21680088C86006E0206881683B
:100DB000890709D5216B0988C160206B801C2063DD
:100DC000E08E401EE08609E0FFF748FBA0EB08003C
:100DD000A84202D3681C01D031E07DB3E08E002828
:100DE000E4D120E0206B21680078087306E02068D9
:100DF0008168890709D5216B09780173206B401C34
:100E00002063E08E401EE0860AE0FFF727FBA0EBA0
:100E10000800A84203D3681C02D010E017E06DB1AF
:100E2000E08E0028E3D142462946204600F06FFAC2
:100E300008B120206065A06818B106E0FFE703272D
:100E400006E02068C16880680090606D00B10127ED
:100E500084F851B084F850A0384666E72DE9F84F81
:100E6000044690F8500000270A9E1D4692468B4685
:100E70004FF0010901280ED0012084F85000FFF73F
:100E8000EDFA804694F85100616801280CD0B1F564
:100E9000827F07D102E00220BDE8F88FA16809B97E
:100EA000042801D00227C2E0BBF1000F27D0BAF11D
:100EB000000F24D01DB394F85100042802D005205F
:100EC00084F8510000206065C4F838A0E587A58744
:100ED000C4F830B0E586A5862064606420680168A7
:100EE000490603D4016841F040010160E068B0F5B3
:100EF000006F606805D0E8B3012D46D07FE0012780
:100F000095E008B1012D39D1206B21680088C860B7
:100F1000206B801C2063E08E401EE0862EE020685F
:100F2000816889070FD5E18E69B1B9F1010F0AD146
:100F3000216B0988C160206B801C2063E08E401EFD
:100F4000E0864FF0000920688168C9070CD0E18F66
:100F500051B1C068A16B0880A06B801CA063E08FBA
:100F6000401EE0874FF00109FFF778FAA0EB080078
:100F7000B04200E009E001D3701C50D1E08E00289F
:100F8000CDD1E08F0028CAD13FE0206B21680078E6
:100F90000873206B401C2063E08E401EE0862EE02C
:100FA0002068816889070FD5E18E69B1B9F1010F19
:100FB0000AD1216B09780173206B401C2063E08EFD
:100FC000401EE0864FF0000920688168C9070CD0F8
:100FD000E18F51B1C068A16B0870A06B401CA06389
:100FE000E08F401EE0874FF00109FFF737FAA0EBD2
:100FF0000800B04202D3701C01D010E07EB1E08E38
:101000000028CDD1E08F0028CAD142463146204683
:1010100000F07DF928B101272020606507E0032753
:1010200005E0A06818B92068C168806800900120B8
:1010300084F85100002084F8500038462CE710B5A1
:10104000401EB0F1807F01D3012010BD4FF0E0249D
:1010500060610F21601700F097FA0020A06107205F
:101060002061002010BD70B5040004D094F8390050
:10107000002510B106E0012070BD84F838502046EC
:1010800000F022F8242084F839002068C16821F497
:101090000051C160204600F0D3F92068016921F4B5
:1010A000904101612068416921F02A014161206875
:1010B000C16841F40051C160E563202084F8390023
:1010C00084F83A00002070BD30B585B0002400944B
:1010D00001940294039400681449884224D114486E
:1010E000816941F480418161816901F48041049109
:1010F000816941F00401816180690E4D00F00400B6
:1011000004904FF40070009002200190032003909F
:1011100069462846FFF7ACF82815CDE90004694672
:1011200028460294FFF7A4F805B030BD003801400E
:1011300000100240000801402DE9F843044690F8F1
:1011400039001F4616460D4620284CD1C5B1BEB108
:1011500094F83800012846D0012084F838004FF078
:101160000008C4F83C80212084F83900FFF776F9A4
:10117000A6848146E684A068B0F5805F03D004E0D1
:101180000120BDE8F883206928B12E465FF00005F4
:1011900084F838800EE00026FAE78021204600F02F
:1011A000ABF9A0B9AEB116F8010B21684860E08C2C
:1011B000401EE084E08C4B464FF000020097002870
:1011C000EBD14FF04001204600F096F930B10320FA
:1011D000D7E735F8020BC0F30800E6E7202084F8D3
:1011E00039000020CDE70220CBE7FEE770B586B0DE
:1011F0001D4800250295816941F0100181618169D6
:1012000001F010010491816941F02001816181693F
:1012100001F020010491816941F00401816181693B
:1012200001F004010491816941F008018161806944
:10123000012400F00800009402260194CDE9036027
:1012400069460A48FFF714F810208DE87100084C31
:1012500069462046FFF70CF8012210212046FFF7CF
:10126000F7F806B070BD000000100240000C01400D
:10127000000801400C480B494FF4007201604FF424
:101280008271416000218160C1600161C0E9051285
:101290002822C0E90721416281620A21C162FFF769
:1012A000ECBB00000030014018000020FEE7704752
:1012B0007047F8B5044640684FF48273984217D1DE
:1012C000A0684FF48065B0F5004F01D0A8420FD15F
:1012D0002068066826F0400606606068984207D1DC
:1012E000A068A84204D100920B460022012103E02D
:1012F00000920B4600228021204600F019F80028B9
:1013000004D0606D40F0200060650320F8BD38B562
:101310000B46009204460022802100F009F80028C4
:1013200004D0606D40F020006065032038BD0000EF
:101330002DE9F8431E46914688460446089DFFF76E
:101340008DF8401B351AFFF789F8074625480068D5
:10135000C0F3CB30684338E0701C37D0FFF77EF81D
:10136000C01BA84203D215B1009860B32CE02068DE
:10137000416821F0E00141606068B0F5827F0BD1E7
:10138000A068B0F5004F02D0B0F5806F04D120689E
:10139000016821F040010160A06AB0F5005F09D149
:1013A0002068016821F4005101602068016841F45F
:1013B00000510160012084F85100002084F85000A1
:1013C0000320BDE8F8830025401E00902068816856
:1013D00038EA010004D000214945BDD10020F0E7E2
:1013E0000121F9E7140000207047FFF73DB830B540
:1013F0008FB028216846FEF7DDFE14210AA8FEF70B
:10140000D9FE01210804CDE9001000240294022530
:101410000491CDE907504FF4E01009906846FFF7BA
:1014200099F90F20CDE90A056802CDE90C400221A7
:101430000AA80E94FFF7A2F80FB030BD7047000065
:1014400070B5044600680169E26821F44051114317
:1014500001612169A0680843616908432168CA687D
:1014600041F20C639A430243CA6020684169A26951
:1014700021F44071114341611E492068884202D124
:10148000FFF722F901E0FFF70FF900EBC00101EBD4
:101490000012606864218000B2FBF0F3B3FBF1F34B
:1014A0006FF018067343B2FBF0F5B2FBF0F605EBF4
:1014B0008305322303EB0515B5FBF1F5B6FBF1F619
:1014C00005F0F00505EB0615B2FBF0F6B2FBF0F007
:1014D000B0FBF1F06FF01802504306EB800003EB15
:1014E0000010B0FBF1F0216800F00F002844886084
:1014F00070BD0000003801402DE9F04198461746C4
:101500000E460446069D1DE0681C1BD02DB1FEF75B
:10151000A5FFA0EB0800A84214D92068C16821F4F7
:10152000D071C1602068416921F001014161202032
:1015300084F8390084F83A00002084F83800032049
:10154000BDE8F0812068006836EA000004D0002081
:10155000B842D9D00020F3E70120F9E7FEE7000008
:101560000FB4084B10B504A902AA039800F02CF898
:10157000044602A9002000F0D1F8204610BC5DF816
:1015800014FB00001D1700080907090E002804DBE2
:1015900000F1E02080F80014704700F00F0000F127
:1015A000E02080F8141D704702E008C8121F08C12F
:1015B000002AFAD170477047002001E001C1121FD4
:1015C000002AFBD1704700002DE9FF4F89B09B46F0
:1015D0000446002506E025280BD05A460B99904773
:1015E000641C6D1C20780028F5D10DB02846BDE89C
:1015F000F08F0027B8460122474900E0074314F85E
:10160000013F203B02FA03F00842F7D120782E2850
:1016100019D114F8010F47F004072A280ED06FF0F3
:101620002F022078A0F1300109290CD808EB88019D
:1016300002EB410100EB0108641CF2E70A98641C0C
:1016400050F8048B0A9020780028CED0642808D067
:10165000692806D075281ED05A460B9990476D1CF4
:1016600058E00A994FF00A0901C90A91002802DAE4
:1016700040422D2102E0390504D52B218DF82010A0
:10168000012103E0F90704D02021F7E78A4608AEDC
:101690000DE00021FAE70A994FF00A0901C90A9101
:1016A000F7E74946FEF798FD303106F8011D00289E
:1016B000F7D1ADEB060000F12009780701D44FF017
:1016C0000108C84502DDA8EB090000E000208046C3
:1016D000002706E008A85A46C05D0B9990476D1C8C
:1016E0007F1C5745F6DB04E030205A460B999047A3
:1016F0006D1CB8F10001A8F10108F5DC05E016F851
:10170000010B5A460B9990476D1CB9F10001A9F1E4
:101710000109F4DC641C65E7092801000A68531C10
:101720000B601070704710B50446012100F08EF870
:10173000C043800715D081220121204600F002F924
:1017400072221D21204600F0FDF800220D212046C6
:1017500000F0F8F800222221204600F0F3F80020E3
:1017600010BD012010BD70B50546642483220121FF
:1017700000F0E8F803E0641E14F0FF040CD012211E
:10178000284600F063F80007F5D508221221284604
:1017900000F0D8F8002070BD0120FEF757FD0120B1
:1017A00070BD000010B50446006800220188406842
:1017B00089B2FEF74DFE0A20FEF748FD206801229F
:1017C0000188406889B2FEF743FE0A20FEF73EFD1D
:1017D0004221204600F03AF8122801D0012010BD25
:1017E00080220121204600F0ADF82079164901EB56
:1017F000C000D0E90023204600F05EF800220E2150
:10180000204600F09FF800220F21204600F09AF8B1
:101810000C21204600F01AF840F003020C2120466B
:1018200000F090F804222621204600F08BF88F2249
:101830000921204600F086F881220121204600F08F
:1018400081F8002010BD0000501B00087CB5044644
:1018500001F07F008DF8040000208DF80000206862
:101860000022018A406989B2FEF7F2FD20684FF438
:101870007A752B468069012201A9FFF73CFA20689E
:101880008069FFF7F7F80128F9D120682B4601227B
:1018900080696946FFF782F920688069FFF7EAF8F6
:1018A0000128F9D120680122018A406989B2FEF736
:1018B000CFFD9DF800007CBD70B5D904054641EA16
:1018C0005231D0040E4A0023FEF72CFC0446000CD3
:1018D00040EA01400E46C2B20621284600F032F826
:1018E000200A40EA0660C2B20721284600F02AF822
:1018F000E2B22846BDE87040082100F023B800009D
:101900000048E8012DE9F0410F46144680462221A7
:10191000FFF79CFF06462044FF2801DDC6F1FF04C7
:10192000002505E07A5D0021404600F00BF86D1CB3
:10193000A542F7DB3019C2B24046BDE8F041222192
:10194000AFF3008037B582B0044641F080008DF8D7
:10195000000020680022018A406989B2FEF778FD04
:1019600020684FF47A752B46806901226946FFF79B
:10197000C2F920688069FFF77DF80128F9D1206855
:101980002B460122806904A9FFF7B5F92068806918
:10199000FFF770F80128F9D120680122018A406917
:1019A00089B2FEF755FD05B030BD000086B0FEF7E8
:1019B00063FDFFF71CFDFFF719FCFFF75BFC4348D5
:1019C0004149002401604FF41651C0E901140C2173
:1019D000C460C0E904418461C461FFF744FB3B4833
:1019E0003B4940304161102101613A494160012188
:1019F0000160A0F198018161374908600C7137A13D
:101A00001C30FFF7ADFD31485C30FEF7DEFB2F499F
:101A100082B24FF47A7423465C312C48FFF78CFB7A
:101A200012E02A4834A15C30FFF79AFD27485C3069
:101A3000FEF7CBFB254982B223465C312348FFF7F2
:101A40007BFB2046FEF702FC2348FFF7ABFE002895
:101A5000E7D11E482CA15C30FFF782FD1B485C30AB
:101A6000FEF7B3FB194982B223465C311748FFF7F2
:101A700063FB00252CA16846FFF772FD1648FFF7AF
:101A800052FE6846FEF7A1FBC2B269461248FFF754
:101A900039FF1148FFF767FE2A46681C85B20B48DC
:101AA00025A15C30FFF75CFD08485C30FEF78DFB3C
:101AB000064982B223465C310448FFF73DFB2046CD
:101AC000FEF7C4FBDAE70000003801407000002098
:101AD00000080140000C014000000020436F6E66CA
:101AE00069677572696E67204C6F5261206D6F6413
:101AF000756C650D0A0000004C6F526120466169EB
:101B00006C65640D0A000000446F6E6520636F6EA3
:101B10006669677572696E67204C6F52614D6F64BC
:101B2000756C650D0A00000056696E6F6420456D86
:101B3000626564646564000053656E64696E672065
:101B40007061636B65742025640D0A00000000005D
:101B5000400ECF190000000040DA8E330000000074
:101B6000801C9E3300000000C05EAD33000000000A
:101B7000000000000000000001020304060708093D
:101B80000000000001020304A81B00080000002060
:101B900018000000A8150008C01B0008180000204D
:101BA000F8040000B8150008000000000000000064
:101BB0000100000010000000000000000024F400FC
:04000005080000ED02
:00000001FF
